{
  "_format": "hh-sol-artifact-1",
  "contractName": "MonPad",
  "sourceName": "contracts/MonPad.sol",
  "abi": [
    {
      "inputs": [],
      "stateMutability": "nonpayable",
      "type": "constructor"
    },
    {
      "anonymous": false,
      "inputs": [
        {
          "indexed": true,
          "internalType": "address",
          "name": "user",
          "type": "address"
        },
        {
          "indexed": false,
          "internalType": "address",
          "name": "smartAccount",
          "type": "address"
        },
        {
          "indexed": false,
          "internalType": "uint256",
          "name": "timestamp",
          "type": "uint256"
        }
      ],
      "name": "AccountDeployed",
      "type": "event"
    },
    {
      "anonymous": false,
      "inputs": [
        {
          "indexed": true,
          "internalType": "address",
          "name": "deployer",
          "type": "address"
        },
        {
          "indexed": true,
          "internalType": "address",
          "name": "tokenAddress",
          "type": "address"
        },
        {
          "indexed": false,
          "internalType": "string",
          "name": "name",
          "type": "string"
        },
        {
          "indexed": false,
          "internalType": "string",
          "name": "symbol",
          "type": "string"
        },
        {
          "indexed": false,
          "internalType": "uint256",
          "name": "supply",
          "type": "uint256"
        },
        {
          "indexed": false,
          "internalType": "uint256",
          "name": "timestamp",
          "type": "uint256"
        }
      ],
      "name": "TokenDeployed",
      "type": "event"
    },
    {
      "anonymous": false,
      "inputs": [
        {
          "indexed": true,
          "internalType": "address",
          "name": "caller",
          "type": "address"
        },
        {
          "indexed": true,
          "internalType": "address",
          "name": "tokenAddress",
          "type": "address"
        },
        {
          "indexed": true,
          "internalType": "address",
          "name": "to",
          "type": "address"
        },
        {
          "indexed": false,
          "internalType": "uint256",
          "name": "amount",
          "type": "uint256"
        },
        {
          "indexed": false,
          "internalType": "uint256",
          "name": "timestamp",
          "type": "uint256"
        }
      ],
      "name": "TokenMinted",
      "type": "event"
    },
    {
      "anonymous": false,
      "inputs": [
        {
          "indexed": true,
          "internalType": "address",
          "name": "caller",
          "type": "address"
        },
        {
          "indexed": true,
          "internalType": "address",
          "name": "tokenAddress",
          "type": "address"
        },
        {
          "indexed": true,
          "internalType": "address",
          "name": "to",
          "type": "address"
        },
        {
          "indexed": false,
          "internalType": "uint256",
          "name": "amount",
          "type": "uint256"
        },
        {
          "indexed": false,
          "internalType": "uint256",
          "name": "timestamp",
          "type": "uint256"
        }
      ],
      "name": "TokenTransferred",
      "type": "event"
    },
    {
      "inputs": [
        {
          "internalType": "address",
          "name": "token",
          "type": "address"
        }
      ],
      "name": "isERC20",
      "outputs": [
        {
          "internalType": "bool",
          "name": "",
          "type": "bool"
        }
      ],
      "stateMutability": "view",
      "type": "function"
    },
    {
      "inputs": [],
      "name": "owner",
      "outputs": [
        {
          "internalType": "address",
          "name": "",
          "type": "address"
        }
      ],
      "stateMutability": "view",
      "type": "function"
    },
    {
      "inputs": [
        {
          "internalType": "address",
          "name": "sa",
          "type": "address"
        }
      ],
      "name": "recordAccount",
      "outputs": [],
      "stateMutability": "nonpayable",
      "type": "function"
    },
    {
      "inputs": [
        {
          "internalType": "address",
          "name": "tokenAddress",
          "type": "address"
        },
        {
          "internalType": "string",
          "name": "name",
          "type": "string"
        },
        {
          "internalType": "string",
          "name": "symbol",
          "type": "string"
        },
        {
          "internalType": "uint256",
          "name": "supply",
          "type": "uint256"
        }
      ],
      "name": "recordDeploy",
      "outputs": [],
      "stateMutability": "nonpayable",
      "type": "function"
    },
    {
      "inputs": [
        {
          "internalType": "address",
          "name": "token",
          "type": "address"
        },
        {
          "internalType": "address",
          "name": "to",
          "type": "address"
        },
        {
          "internalType": "uint256",
          "name": "amount",
          "type": "uint256"
        }
      ],
      "name": "recordMint",
      "outputs": [],
      "stateMutability": "nonpayable",
      "type": "function"
    },
    {
      "inputs": [
        {
          "internalType": "address",
          "name": "token",
          "type": "address"
        },
        {
          "internalType": "address",
          "name": "to",
          "type": "address"
        },
        {
          "internalType": "uint256",
          "name": "amount",
          "type": "uint256"
        }
      ],
      "name": "recordTransfer",
      "outputs": [],
      "stateMutability": "nonpayable",
      "type": "function"
    },
    {
      "inputs": [
        {
          "internalType": "address",
          "name": "newOwner",
          "type": "address"
        }
      ],
      "name": "transferOwnership",
      "outputs": [],
      "stateMutability": "nonpayable",
      "type": "function"
    }
  ],
  "bytecode": "0x608060405234801561001057600080fd5b50336000806101000a81548173ffffffffffffffffffffffffffffffffffffffff021916908373ffffffffffffffffffffffffffffffffffffffff160217905550610ace806100606000396000f3fe608060405234801561001057600080fd5b506004361061007d5760003560e01c806361885b221161005b57806361885b22146100ea57806389162624146101065780638da5cb5b14610122578063f2fde38b146101405761007d565b806301e3a903146100825780631898eb531461009e578063263e0c1b146100ba575b600080fd5b61009c60048036038101906100979190610636565b61015c565b005b6100b860048036038101906100b39190610636565b6101df565b005b6100d460048036038101906100cf9190610689565b610262565b6040516100e191906106d1565b60405180910390f35b61010460048036038101906100ff9190610751565b61036a565b005b610120600480360381019061011b9190610689565b6103e1565b005b61012a610434565b6040516101379190610807565b60405180910390f35b61015a60048036038101906101559190610689565b610458565b005b8173ffffffffffffffffffffffffffffffffffffffff168373ffffffffffffffffffffffffffffffffffffffff163373ffffffffffffffffffffffffffffffffffffffff167f8a5f0ac031419eaec74adaefa92516a2b529c110f67e20899c4a0c76f0b9bf5f84426040516101d2929190610831565b60405180910390a4505050565b8173ffffffffffffffffffffffffffffffffffffffff168373ffffffffffffffffffffffffffffffffffffffff163373ffffffffffffffffffffffffffffffffffffffff167fa25f2b2fe9425080b4db0386abf417656d28f3ea08e4e7fd2c92913b51ee29348442604051610255929190610831565b60405180910390a4505050565b60008060008373ffffffffffffffffffffffffffffffffffffffff166040516024016040516020818303038152906040527f18160ddd000000000000000000000000000000000000000000000000000000007bffffffffffffffffffffffffffffffffffffffffffffffffffffffff19166020820180517bffffffffffffffffffffffffffffffffffffffffffffffffffffffff838183161783525050505060405161030e91906108cb565b600060405180830381855afa9150503d8060008114610349576040519150601f19603f3d011682016040523d82523d6000602084013e61034e565b606091505b5091509150818015610361575060008151115b92505050919050565b8573ffffffffffffffffffffffffffffffffffffffff163373ffffffffffffffffffffffffffffffffffffffff167f2ad2d40d88f8e397479ee55a58c0db80713e2d67d03949fb28b67bbaaf9d94368787878787426040516103d196959493929190610940565b60405180910390a3505050505050565b3373ffffffffffffffffffffffffffffffffffffffff167fa453f15f0d1f2600dfc00a82bd6c2b5feddb3aad5b2e016c83a2fa2a224088ad8242604051610429929190610997565b60405180910390a250565b60008054906101000a900473ffffffffffffffffffffffffffffffffffffffff1681565b60008054906101000a900473ffffffffffffffffffffffffffffffffffffffff1673ffffffffffffffffffffffffffffffffffffffff163373ffffffffffffffffffffffffffffffffffffffff16146104e6576040517f08c379a00000000000000000000000000000000000000000000000000000000081526004016104dd90610a0c565b60405180910390fd5b600073ffffffffffffffffffffffffffffffffffffffff168173ffffffffffffffffffffffffffffffffffffffff1603610555576040517f08c379a000000000000000000000000000000000000000000000000000000000815260040161054c90610a78565b60405180910390fd5b806000806101000a81548173ffffffffffffffffffffffffffffffffffffffff021916908373ffffffffffffffffffffffffffffffffffffffff16021790555050565b600080fd5b600080fd5b600073ffffffffffffffffffffffffffffffffffffffff82169050919050565b60006105cd826105a2565b9050919050565b6105dd816105c2565b81146105e857600080fd5b50565b6000813590506105fa816105d4565b92915050565b6000819050919050565b61061381610600565b811461061e57600080fd5b50565b6000813590506106308161060a565b92915050565b60008060006060848603121561064f5761064e610598565b5b600061065d868287016105eb565b935050602061066e868287016105eb565b925050604061067f86828701610621565b9150509250925092565b60006020828403121561069f5761069e610598565b5b60006106ad848285016105eb565b91505092915050565b60008115159050919050565b6106cb816106b6565b82525050565b60006020820190506106e660008301846106c2565b92915050565b600080fd5b600080fd5b600080fd5b60008083601f840112610711576107106106ec565b5b8235905067ffffffffffffffff81111561072e5761072d6106f1565b5b60208301915083600182028301111561074a576107496106f6565b5b9250929050565b6000806000806000806080878903121561076e5761076d610598565b5b600061077c89828a016105eb565b965050602087013567ffffffffffffffff81111561079d5761079c61059d565b5b6107a989828a016106fb565b9550955050604087013567ffffffffffffffff8111156107cc576107cb61059d565b5b6107d889828a016106fb565b935093505060606107eb89828a01610621565b9150509295509295509295565b610801816105c2565b82525050565b600060208201905061081c60008301846107f8565b92915050565b61082b81610600565b82525050565b60006040820190506108466000830185610822565b6108536020830184610822565b9392505050565b600081519050919050565b600081905092915050565b60005b8381101561088e578082015181840152602081019050610873565b60008484015250505050565b60006108a58261085a565b6108af8185610865565b93506108bf818560208601610870565b80840191505092915050565b60006108d7828461089a565b915081905092915050565b600082825260208201905092915050565b82818337600083830152505050565b6000601f19601f8301169050919050565b600061091f83856108e2565b935061092c8385846108f3565b61093583610902565b840190509392505050565b6000608082019050818103600083015261095b81888a610913565b90508181036020830152610970818688610913565b905061097f6040830185610822565b61098c6060830184610822565b979650505050505050565b60006040820190506109ac60008301856107f8565b6109b96020830184610822565b9392505050565b7f4e6f74206f776e65720000000000000000000000000000000000000000000000600082015250565b60006109f66009836108e2565b9150610a01826109c0565b602082019050919050565b60006020820190508181036000830152610a25816109e9565b9050919050565b7f5a65726f20616464726573730000000000000000000000000000000000000000600082015250565b6000610a62600c836108e2565b9150610a6d82610a2c565b602082019050919050565b60006020820190508181036000830152610a9181610a55565b905091905056fea2646970667358221220054fbdd9c3b45da5091e0b833253308e5b9ca1ba519b64a90e3e8644a27196da64736f6c63430008140033",
  "linkReferences": {},
  "deployedLinkReferences": {}
}